:0400000007EF00F016
:0A000800728203ED08F014EF0DF012
:0510000000256900005D
:101006000600FACF61F0FBCF62F0D9CF63F0DACFFA
:1010160064F0F3CF65F0F4CF66F0F2A815EF08F0B0
:1010260017EF08F020EF08F0F2A21CEF08F01EEF11
:1010360008F020EF08F008EC0EF0F0A625EF08F017
:1010460027EF08F030EF08F0F0A02CEF08F02EEFB5
:1010560008F030EF08F006EC0EF0F0A835EF08F0D7
:1010660037EF08F040EF08F0F0A23CEF08F03EEF53
:1010760008F040EF08F004EC0EF0F2A645EF08F099
:1010860047EF08F062EF08F0F2A04CEF08F04EEFE1
:1010960008F062EF08F081A853EF08F055EF08F06A
:1010A60062EF08F05504D8A45BEF08F05DEF08F096
:1010B60062EF08F0000E556E000ED9EC0DF0F2A6A8
:1010C60067EF08F069EF08F084EF08F0F2A06EEF22
:1010D60008F070EF08F084EF08F081B875EF08F0BB
:1010E60077EF08F084EF08F05550D8A47DEF08F0AC
:1010F6007FEF08F084EF08F0010E556E010ED9EC73
:101106000DF0F2A689EF08F08BEF08F0A6EF08F0D5
:10111600F2A090EF08F092EF08F0A6EF08F081AA8F
:1011260097EF08F099EF08F0A6EF08F05404D8A45A
:101136009FEF08F0A1EF08F0A6EF08F0000E546E3E
:10114600000ECCEC0DF0F2A6ABEF08F0ADEF08F018
:10115600C8EF08F0F2A0B2EF08F0B4EF08F0C8EF5D
:1011660008F081BAB9EF08F0BBEF08F0C8EF08F055
:101176005450D8A4C1EF08F0C3EF08F0C8EF08F048
:10118600010E546E010ECCEC0DF0F2A6CDEF08F078
:10119600CFEF08F0EAEF08F0F2A0D4EF08F0D6EFB0
:1011A60008F0EAEF08F081ACDBEF08F0DDEF08F0BD
:1011B600EAEF08F05304D8A4E3EF08F0E5EF08F0EF
:1011C600EAEF08F0000E536E000EBFEC0DF0F2A62B
:1011D600EFEF08F0F1EF08F00CEF09F0F2A0F6EFF0
:1011E60008F0F8EF08F00CEF09F081BCFDEF08F00D
:1011F600FFEF08F00CEF09F05350D8A405EF09F003
:1012060007EF09F00CEF09F0010E536E010EBFEC6B
:101216000DF0F2A611EF09F013EF09F02EEF09F029
:10122600F2A018EF09F01AEF09F02EEF09F081AEDF
:101236001FEF09F021EF09F02EEF09F05204D8A4B0
:1012460027EF09F029EF09F02EEF09F0000E526E94
:10125600000EB2EC0DF0F2A633EF09F035EF09F00F
:1012660050EF09F0F2A03AEF09F03CEF09F050EF29
:1012760009F081BE41EF09F043EF09F050EF09F0A4
:101286005250D8A449EF09F04BEF09F050EF09F09E
:10129600010E526E010EB2EC0DF09DAC55EF09F049
:1012A60057EF09F060EF09F09EAC5CEF09F05EEFD6
:1012B60009F060EF09F010EC0EF0F2AA65EF09F004
:1012C60067EF09F070EF09F0F2A46CEF09F06EEF2A
:1012D60009F070EF09F0FAEC0DF09DA075EF09F03A
:1012E60077EF09F080EF09F09EA07CEF09F07EEF22
:1012F60009F080EF09F0F4EC0DF09DA285EF09F0FE
:1013060087EF09F090EF09F09EA28CEF09F08EEFBF
:1013160009F090EF09F000EC0EF0A0A295EF09F0AD
:1013260097EF09F0A0EF09F0A1A29CEF09F09EEF5C
:1013360009F0A0EF09F0EEEC0DF09DA8A5EF09F07D
:10134600A7EF09F0B0EF09F09EA8ACEF09F0AEEFF9
:1013560009F0B0EF09F00AEC0EF09DAAB5EF09F01E
:10136600B7EF09F0C0EF09F09EAABCEF09F0BEEF97
:1013760009F0C0EF09F012EC0EF09DA6C5EF09F0DA
:10138600C7EF09F0D0EF09F09EA6CCEF09F0CEEF3B
:1013960009F0D0EF09F075EC0DF09DA4D5EF09F03A
:1013A600D7EF09F0E0EF09F09EA4DCEF09F0DEEFDD
:1013B60009F0E0EF09F00EEC0EF0A0A0E5EF09F061
:1013C600E7EF09F0F0EF09F0A1A0ECEF09F0EEEF7E
:1013D60009F0F0EF09F00CEC0EF066C0F4FF65C002
:1013E600F3FF64C0DAFF63C0D9FF62C0FBFF61C0D0
:1013F600FAFF729211000001E251E311D8A406EF40
:101406000AF008EF0AF00AEF0AF0AFEF0AF0C69A00
:10141600E2C0D9FFE3C0DAFFDF50E46FC650E4193B
:10142600F00BE419C66EE2C0D9FFE3C0DAFFDF5065
:10143600D8B420EF0AF022EF0AF048EF0AF0E2C033
:10144600D9FFE3C0DAFFDE04D8B42CEF0AF02EEFA2
:101456000AF048EF0AF0E2C0D9FFE3C0DAFF020E55
:10146600DE18D8B439EF0AF03BEF0AF048EF0AF07D
:10147600E2C0D9FFE3C0DAFF030EDE18D8A446EFB8
:101486000AF048EF0AF04EEF0AF0E2C070F0E3C04F
:1014960071F05CEC0DF0E2C0D9FFE3C0DAFF040E98
:1014A600DE18D8B459EF0AF05BEF0AF068EF0AF0DD
:1014B600E2C0D9FFE3C0DAFF050EDE18D8A466EF56
:1014C6000AF068EF0AF06EEF0AF0E2C070F0E3C0CF
:1014D60071F0E6EC0CF0000120EE01F0E251D926A5
:1014E600E351DA22DF50030BE46FE43BC650E41904
:1014F600EF0BE419C66E20EE01F0E251D926E35156
:10150600DA22DF30E832030BE46FE433E433C7500A
:10151600E4197F0BE419C76E20EE01F0E251D926DB
:10152600E351DA22DF38030BE46FE43BE447E44798
:10153600C750E419BF0BE419C76EF28EF28C9D8674
:101546009E9620EE02F0E251D926E351DA22DECF52
:1015560001F0DDCF02F0C68A1200010E6F6E6750F1
:101566006810D8B4B9EF0AF0BBEF0AF0CCEF0AF076
:1015760067C0D9FF68C0DAFFDF30E832E832070B10
:10158600696E070E6964CAEF0AF0CCEF0AF02FEF16
:101596000BF0000E6F6E50EF0BF067C0D9FF68C0FE
:1015A600DAFFDF30E832E832070B696E010E6A6E49
:1015B600692AE0EF0AF0D8906A36692EDEEF0AF063
:1015C6006A50FF0A6B6E67C0D9FF68C0DAFFDF504A
:1015D600070B6C6E6C50020DB60EF324D96E000E1E
:1015E600F420DA6EDECF6DF0DDCF6EF06DC0D9FF80
:1015F6006EC0DAFF6B50DF1650EF0BF067C0D9FFF5
:1016060068C0DAFFDF30E832E832070B696E010E98
:101616006A6E692A11EF0BF0D8906A36692E0FEFC1
:101626000BF067C0D9FF68C0DAFFDF50070B6B6E9F
:101636006B50020DB60EF324D96E000EF420DA6E4E
:10164600DECF6CF0DDCF6DF06CC0D9FF6DC0DAFF78
:101656006A50DF1250EF0BF067C0D9FF68C0DAFF9F
:10166600DFBE38EF0BF03BEF0BF0010E3CEF0BF05B
:10167600000E696E6A6A6A50000AD8B445EF0BF02C
:10168600CCEF0AF06950000AD8B4D0EF0AF0010A8C
:10169600D8B401EF0BF0CCEF0AF06F501200010E38
:1016A600706E67506810D8B45BEF0BF05DEF0BF00F
:1016B6006EEF0BF067C0D9FF68C0DAFFDF30E832A3
:1016C600E832070B6A6E070E6A646CEF0BF06EEF7A
:1016D6000BF0D1EF0BF0000E706EE6EF0BF067C06B
:1016E600D9FF68C0DAFFDF30E832E832070B6A6EEE
:1016F600010E6B6E6A2A82EF0BF0D8906B366A2E5B
:1017060080EF0BF06B50FF0A6C6E67C0D9FF68C0A4
:10171600DAFFDF50070B6D6E6D50020D3B0EF324A2
:10172600D96E000EF420DA6EDECF6EF0DDCF6FF0EC
:101736006EC0D9FF6FC0DAFF6C50DF16E6EF0BF014
:1017460067C0D9FF68C0DAFFDF30E832E832070B3E
:101756006A6E010E6B6E6A2AB3EF0BF0D8906B3689
:101766006A2EB1EF0BF067C0D9FF68C0DAFFDF5011
:10177600070B6C6E6C50020D3B0EF324D96E000EF7
:10178600F420DA6EDECF6DF0DDCF6EF06DC0D9FFDE
:101796006EC0DAFF6B50DF12E6EF0BF069506A6E2F
:1017A6006B6A6B50000AD8B4DBEF0BF0E6EF0BF078
:1017B6006A50000AD8B472EF0BF0010AD8B4A3EF4E
:1017C6000BF0E6EF0BF0705012003FEC0DF0560EEA
:1017D600676E000E686E000E696E52EC0BF0D80E46
:1017E600676E000E686E610E696E8CEC0DF00B0E66
:1017F6000001E66F260EE56F5D0EE82EFED7E52F9B
:10180600FCD7E62FFAD700D0D80E676E000E686EAA
:10181600620E696E8CEC0DF00B0E0001E66F260E63
:10182600E56F5D0EE82EFED7E52FFCD7E62FFAD73B
:1018360000D0D80E676E000E686E630E696E8CEC73
:101846000DF00B0E0001E66F260EE56F5D0EE82E1D
:10185600FED7E52FFCD7E62FFAD700D0F2EF0BF034
:1018660007EF00F05A505B10D8B43CEF0CF03EEF97
:101876000CF04FEF0CF05AC0D9FF5BC0DAFFDF3037
:10188600E832E832070B5C6E070E5C644DEF0CF035
:101896004FEF0CF051EF0CF07DEF0CF05AC0D9FF72
:1018A6005BC0DAFFDF30E832E832070B5C6E010E10
:1018B6005D6E5C2A61EF0CF0D8905D365C2E5FEFB2
:1018C6000CF05AC0D9FF5BC0DAFFDF50070B5E6E23
:1018D6005E50020D3B0EF324D96E000EF420DA6E34
:1018E600DECF5FF0DDCF60F05FC0D9FF60C0DAFF0A
:1018F6005D50DF1A1200010E0001DF6FDD51DE11AF
:10190600D8B488EF0CF08AEF0CF09BEF0CF0DDC03A
:10191600D9FFDEC0DAFFDF30E832E832070B716E3E
:10192600070E716499EF0CF09BEF0CF09FEF0CF033
:10193600000EDF6FB4EF0CF0DDC067F0DEC068F0BC
:10194600B0EC0AF0DDC067F0DEC068F0DDC0D9FF9C
:10195600DEC0DAFF0001000EDFBC010E696E52EC3C
:101966000BF00001DF51120080250000010001008C
:10197600000000000000000000003738392F343521
:10198600362A3132332D23303D2B323A030B131BCB
:10199600232B333B800F810F810F830F840F920F10
:1019A600930F940F950F960F020A121AA2AAB2BAB3
:1019B600020A121A222A0411000000020A121A014F
:0519C6000111CC1B0023
:1019CC004CC0DEF04BC0DFF04AC0E0F049C0E1F0A3
:1019DC00DE0E676E000E686EB0EC0AF0DF0E676EFE
:1019EC00000E686EB0EC0AF0E00E676E000E686ECA
:1019FC00B0EC0AF070C0D9FF71C0DAFF040EDE182B
:101A0C00D8A40BEF0DF00DEF0DF013EF0DF0E10E70
:101A1C00676E000E686EB0EC0AF012006E0EF66E79
:101A2C00190EF76E000EF86E00EE80F010EE5DF001
:101A3C000900F5CFEEFFE550E150FAE1440EF66EE9
:101A4C001B0EF76E000EF86E00EE3BF010EE1FF062
:101A5C000900F5CFEEFFE550E150FAE100EE01F0A0
:101A6C003A0EEE6AE806FDE1729072920001E8EF20
:101A7C000BF0D80E0001E26F000EE36FFEEC09F0E4
:101A8C00590E0001DD6F000EDE6F7EEC0CF0580E6F
:101A9C000001DD6F000EDE6F7EEC0CF0570E0001C6
:101AAC00DD6F000EDE6F7EEC0CF012004FC0DDF02F
:101ABC004EC0DEF04DC0DFF0DD0E676E000E686EBE
:101ACC00B0EC0AF0DE0E676E000E686EB0EC0AF039
:101ADC00DF0E676E000E686EB0EC0AF012009E9678
:101AEC0001500210D8B47DEF0DF07FEF0DF08BEFAD
:101AFC000DF002D88BEF0DF00500FA6E0150FD6E63
:101B0C000250FE6EFF6AFA50120012006750681005
:101B1C00D8A493EF0DF095EF0DF097EF0DF0A1EF2A
:101B2C000DF069C0C9FF9EA69EEF0DF0A0EF0DF061
:101B3C0099EF0DF09E961200890F8A0F8B0F8C0F68
:101B4C008D0F1B230B13A89AA22A1AA22A0181011A
:071B5C0001010143030A022D
:101B64005A6EF2905A50D8A4BAEF0DF0BCEF0DF0B3
:101B7400BEEF0DF0BEEF0DF012005A6EF2905A5007
:101B8400D8A4C7EF0DF0C9EF0DF0CBEF0DF0CBEFFC
:101B94000DF012005A6EF2905A50D8A4D4EF0DF002
:101BA400D6EF0DF0D8EF0DF0D8EF0DF012005A6E0D
:101BB400F2905A50D8A4E1EF0DF0E3EF0DF0E5EF09
:101BC4000DF0E5EF0DF01200382A590E5A6E000E92
:101BD4005B6E35EC0CF01200A1920C50B36E0BC08E
:101BE400B2FF12009E901250CF6E11C0CEFF1200B1
:101BF400F2941650D76E15C0D6FF12009E923AC0CA
:101C0400CCFF1200F0921200F0901200F292120037
:101C14009D981200A19012009E9412009E9C1200A6
:021C24001200AC
:020000040020DA
:08000000FFFFFFFFFFFFFFFF00
:020000040030CA
:0E000000FF02091EFF8181FF0FC00FE00F40BD
:00000001FF
