:0400000007EF00F016
:0A0008007D82A2ED0EF078EF13F0F8
:101000000061686D65640D0025690000000E3D6E8D
:10101000000E3E6E000E3F6E000E406E2AEF0AF08C
:10102000AC98AC94B89639C0D9FF3AC0DAFFDECF9D
:1010300002F0DECF03F0DECF04F0DECF05F0000ECD
:10104000E5EC0FF002C014F003C015F004C016F078
:1010500005C017F0000E106E240E116EF40E126E05
:101060004A0E136ED5EC0CF010C041F011C042F0E6
:1010700012C043F013C044F0000E146E000E156E43
:10108000800E166E420E176E41C010F042C011F075
:1010900043C012F044C013F0D5EC0CF010C029F09E
:1010A00011C02AF012C02BF013C02CF0000E2D6ED0
:1010B000000E2E6E800E2F6EBF0E306E75EC0AF095
:1010C00029C03DF02AC03EF02BC03FF02CC040F0BC
:1010D00055EF0AF0AC98AC84B89639C0D9FF3AC045
:1010E000DAFFDECF02F0DECF03F0DECF04F0DECF9A
:1010F00005F0000EE5EC0FF002C014F003C015F08F
:1011000004C016F005C017F0000E106E240E116E0C
:10111000F40E126E4A0E136ED5EC0CF010C041F0B6
:1011200011C042F012C043F013C044F0000E146E20
:10113000000E156E800E166E410E176E41C010F037
:1011400042C011F043C012F044C013F0D5EC0CF0D3
:1011500010C029F011C02AF012C02BF013C02CF0DF
:10116000000E2D6E000E2E6E800E2F6EBF0E306E96
:1011700075EC0AF029C03DF02AC03EF02BC03FF0CC
:101180002CC040F055EF0AF0AC98AC94B88639C04A
:10119000D9FF3AC0DAFFDECF02F0DECF03F0DECFB8
:1011A00004F0DECF05F0000EE5EC0FF002C014F005
:1011B00003C015F004C016F005C017F0000E106E45
:1011C000240E116EF40E126E4A0E136ED5EC0CF056
:1011D00010C041F011C042F012C043F013C044F0FF
:1011E000000E146E000E156E800E166E410E176EF8
:1011F00041C010F042C011F043C012F044C013F0DF
:10120000D5EC0CF010C029F011C02AF012C02BF060
:1012100013C02CF0000E2D6E000E2E6E800E2F6E61
:10122000BF0E306E75EC0AF029C03DF02AC03EF0CA
:101230002BC03FF02CC040F055EF0AF0AC98AC84C6
:10124000B88639C0D9FF3AC0DAFFDECF02F0DECF70
:1012500003F0DECF04F0DECF05F0000EE5EC0FF07A
:1012600002C014F003C015F004C016F005C017F05A
:10127000000E106E240E116EF40E126E4A0E136ED6
:10128000D5EC0CF010C041F011C042F012C043F098
:1012900013C044F0000E146E000E156E800E166E14
:1012A000400E176E41C010F042C011F043C012F062
:1012B00044C013F0D5EC0CF010C029F011C02AF096
:1012C00012C02BF013C02CF0000E2D6E000E2E6EEF
:1012D000800E2F6EBF0E306E75EC0AF029C03DF007
:1012E0002AC03EF02BC03FF02CC040F055EF0AF072
:1012F000AC88B89639C0D9FF3AC0DAFFDECF02F029
:10130000DECF03F0DECF04F0DECF05F0000EE5EC1B
:101310000FF002C014F003C015F004C016F005C0B1
:1013200017F0000E106E240E116EF40E126E4A0E9F
:10133000136ED5EC0CF010C041F011C042F012C099
:1013400043F013C044F0000E146E000E156E800EB4
:10135000166E400E176E41C010F042C011F043C02F
:1013600012F044C013F0D5EC0CF010C029F011C0FD
:101370002AF012C02BF013C02CF0000E2D6E000EC0
:101380002E6E800E2F6EBF0E306E75EC0AF029C0E7
:101390003DF02AC03EF02BC03FF02CC040F055EF8E
:1013A0000AF0AC88B88639C0D9FF3AC0DAFFDECF80
:1013B00002F0DECF03F0DECF04F0DECF05F0000E4A
:1013C000E5EC0FF002C014F003C015F004C016F0F5
:1013D00005C017F0000E106E240E116EF40E126E82
:1013E0004A0E136ED5EC0CF010C041F011C042F063
:1013F00012C043F013C044F0000E146E000E156EC0
:10140000800E166E400E176E41C010F042C011F0F3
:1014100043C012F044C013F0D5EC0CF010C029F01A
:1014200011C02AF012C02BF013C02CF0000E2D6E4C
:10143000000E2E6E800E2F6EBF0E306E75EC0AF011
:1014400029C03DF02AC03EF02BC03FF02CC040F038
:1014500055EF0AF020EE04F03950D9263A50DA223E
:10146000DF503B6E3C6A3C50000AD8B43AEF0AF0B9
:1014700055EF0AF03B50000AD8B410EF08F0010A0B
:10148000D8B46AEF08F0030AD8B4C4EF08F0010A30
:10149000D8B41EEF09F0070AD8B478EF09F0010AB2
:1014A000D8B4D1EF09F055EF0AF03DC002F03EC0CC
:1014B00003F03FC004F040C005F0F7EC11F002501B
:1014C000AF6E3DC002F03EC003F03FC004F040C02C
:1014D00005F0F7EC11F003C002F004C003F005C002
:1014E00004F0056A0250B06E12002C50800B356E6D
:1014F0002C502C24376E2BAE80EF0AF082EF0AF0CE
:1015000083EF0AF037803750D8B489EF0AF08BEFB9
:101510000AF0A0EF0AF03728D8A491EF0AF093EF71
:101520000AF09BEF0AF0000E296E000E2A6E000EE4
:101530002B6E000E2C6E2B8E000E2C6EA8EF0AF078
:10154000000E296E000E2A6E000E2B6E000E2C6E01
:101550003050800B366E35503618D8B4B2EF0AF0E2
:10156000B4EF0AF0B5EF0AF0358C30503024366E07
:101570002FAEBDEF0AF0BFEF0AF0C0EF0AF03680E1
:101580003650D8B4C6EF0AF0C8EF0AF0DDEF0AF023
:101590003628D8A4CEEF0AF0D0EF0AF0D8EF0AF040
:1015A000000E2D6E000E2E6E000E2F6E000E306E91
:1015B0002F8E000E306EE5EF0AF0000E2D6E000E3D
:1015C0002E6E000E2F6E000E306E3750365CD8B087
:1015D000ECEF0AF0EEEF0AF015EF0BF035ACF3EF9D
:1015E0000AF0F5EF0AF0F7EF0AF0800E351A37C06F
:1015F00038F036C037F038C036F029C038F02DC08A
:1016000029F038C02DF02AC038F02EC02AF038C09A
:101610002EF02BC038F02FC02BF038C02FF02CC08C
:1016200038F030C02CF038C030F0000E386E375033
:1016300036C031F0326A315E000E325A32BE2AEFC5
:101640000BF0325009E11A0E315CD8A02AEF0BF0F2
:101650002CEF0BF063EF0BF029502A102B102C10FD
:10166000D8A435EF0BF038EF0BF0010E39EF0BF08B
:10167000000E386E000E296E000E2A6E000E2B6EC4
:10168000000E2C6E36C037F06CEF0BF038A04BEF2D
:101690000BF04DEF0BF053EF0BF0D8903830010901
:1016A000386E55EF0BF0D890383229A05AEF0BF076
:1016B0005CEF0BF05DEF0BF0388E2C342C322B32BC
:1016C0002A322932372A3650375CD8A06AEF0BF01D
:1016D0006CEF0BF046EF0BF035BC71EF0BF073EFD6
:1016E0000BF0B3EF0BF03750D8A479EF0BF07BEF92
:1016F0000BF085EF0BF0000E296E000E2A6E000E27
:101700002B6E000E2C6ED4EF0CF02D5029262E508F
:101710002A222F502B2230502C222CA092EF0BF09B
:1017200094EF0BF040EF0CF038A099EF0BF09BEF2B
:101730000BF0A1EF0BF0D89038300109386EA3EF11
:101740000BF0D890383229A0A8EF0BF0AAEF0BF0DD
:10175000ABEF0BF0388E2C342C322B322A3229325C
:10176000372A40EF0CF02D50295C2E502A582F506C
:101770002B582C50800A316E3050800A3158D8B026
:10178000C4EF0BF0C6EF0BF0F1EF0BF029502D5C1E
:10179000316E2A502E58326E2B502F58336E2C50EB
:1017A0003058346EFF0E3124296EFF0E32202A6E1F
:1017B000FF0E33202B6EFF0E34202C6E800E351A58
:1017C000386C3850D8A4E7EF0BF0E9EF0BF0F9EFE5
:1017D0000BF0010E2926000E2A222B222C22F9EFD3
:1017E0000BF02D50295E2E502A5A2F502B5A305074
:1017F0002C5A29502A102B102C10D8A402EF0CF0D0
:1018000004EF0CF039EF0CF03850D8A40AEF0CF0CC
:101810000CEF0CF039EF0CF0000E296E000E2A6E62
:10182000000E2B6E000E2C6ED4EF0CF0D8902936E3
:101830002A362B362C3638AE20EF0CF022EF0CF087
:1018400023EF0CF0298038A028EF0CF02AEF0CF0E1
:101850002EEF0CF0D880383630EF0CF0D8903836B8
:101860003750D8B436EF0CF038EF0CF039EF0CF0FD
:1018700037062BAE3EEF0CF040EF0CF016EF0CF0FD
:10188000000E366E38AE47EF0CF049EF0CF061EF0A
:101890000CF038C031F07F0E3116D8B452EF0CF096
:1018A00054EF0CF058EF0CF0010E366E61EF0CF0B7
:1018B00029A05DEF0CF05FEF0CF061EF0CF054EF3E
:1018C0000CF03650D8B467EF0CF069EF0CF094EFE1
:1018D0000CF0010E2926000E2A222B222C222CA0ED
:1018E00074EF0CF076EF0CF094EF0CF029C031F0AF
:1018F0002AC032F02BC033F02CC034F034343432F0
:1019000033323232313231C029F032C02AF033C0A2
:101910002BF034C02CF03728D8B491EF0CF093EFB3
:101920000CF094EF0CF0372A3728D8B49AEF0CF06B
:101930009CEF0CF0A4EF0CF03750D8A4A2EF0CF001
:10194000A4EF0CF0B6EF0CF0000E296E000E2A6E1C
:10195000000E2B6E000E2C6E3750D8A4B2EF0CF098
:10196000B4EF0CF0B6EF0CF0000E356E37A0BBEF05
:101970000CF0BDEF0CF0C0EF0CF02B8EC1EF0CF0B3
:101980002B9ED89037302C6E35AEC9EF0CF0CBEFD4
:101990000CF0CCEF0CF02C8E29C029F02AC02AF0D4
:1019A0002BC02BF02CC02CF012001350800B206E9B
:1019B00013501324276E12AEE0EF0CF0E2EF0CF0A0
:1019C000E3EF0CF027802750D8B4E9EF0CF0EBEFF1
:1019D0000CF000EF0DF02728D8A4F1EF0CF0F3EF96
:1019E0000CF0FBEF0CF0000E106E000E116E000EEE
:1019F000126E000E136E128E000E136E08EF0DF0B5
:101A0000000E106E000E116E000E126E000E136EA0
:101A10001750800B201A17501724286E16AE13EF9C
:101A20000DF015EF0DF016EF0DF028802850D8B40A
:101A30001CEF0DF01EEF0DF033EF0DF02828D8A4A9
:101A400024EF0DF026EF0DF02EEF0DF0000E146ECA
:101A5000000E156E000E166E000E176E168E000E1E
:101A6000176E3BEF0DF0000E146E000E156E000E9B
:101A7000166E000E176E1450151016101710D8A4FD
:101A800044EF0DF046EF0DF05EEF0DF0000E106E1E
:101A9000000E116E000E126E000E136E800E1212EA
:101AA0007F0E13122050131210C010F011C011F04D
:101AB00012C012F013C013F0A1EF0EF02750D8A4FB
:101AC00064EF0DF066EF0DF070EF0DF0000E106E8C
:101AD000000E116E000E126E000E136EA1EF0EF0CE
:101AE000285027C018F0196A185E000E195A7F0E88
:101AF0001824216E000E1920226E10C01CF011C097
:101B00001DF012C01EF013C01FF0000E106E000E6C
:101B1000116E000E126E000E136E000E236E000E7C
:101B2000246E000E256E000E266E000E286ED1EF7C
:101B30000DF02850D8B49FEF0DF0A1EF0DF0B8EFE5
:101B40000DF0D8901C361D361E361F36D890103634
:101B500011361236133626AEB0EF0DF0B2EF0DF09F
:101B6000B3EF0DF01080D890233624362536263674
:101B700014501C5C15501D5816501E5817501F58F5
:101B8000D8A0C5EF0DF0C7EF0DF0D0EF0DF0268C0B
:101B900014501C5E15501D5A16501E5A17501F5ACD
:101BA000282A190E2864D7EF0DF0D9EF0DF099EF20
:101BB0000DF01C501D101E101F10D8B4E2EF0DF0D8
:101BC000E4EF0DF0FCEF0DF02380FCEF0DF0D8906A
:101BD000103611361236133626AEF1EF0DF0F3EF54
:101BE0000DF0F4EF0DF01080D89023362436253612
:101BF00026362106D8A0220612AE01EF0EF003EF22
:101C00000EF0E7EF0DF0000E286E26AE0AEF0EF094
:101C10000CEF0EF030EF0EF0FF0E2314186EFF0ED7
:101C20002414196EFF0E25141A6E7F0E26141B6ED7
:101C3000185019101A101B10D8B421EF0EF023EF12
:101C40000EF027EF0EF0010E286E30EF0EF010A010
:101C50002CEF0EF02EEF0EF030EF0EF023EF0EF023
:101C60002850D8B436EF0EF038EF0EF05CEF0EF0DF
:101C7000010E1026000E11221222132213A043EF90
:101C80000EF045EF0EF05CEF0EF010C018F011C032
:101C900019F012C01AF013C01BF01B341B321A3299
:101CA0001932183218C010F019C011F01AC012F011
:101CB0001BC013F0214A222A22BE67EF0EF02250E9
:101CC00008E12128D8A067EF0EF069EF0EF074EF5D
:101CD0000EF0000E226E2168000E106E000E116EC6
:101CE000000E126E000E136E22BE81EF0EF0225017
:101CF00006E12104D8B07FEF0EF081EF0EF08FEFF8
:101D00000EF0000E226E000E216E000E106E000E00
:101D1000116E000E126E000E136E000E206E21C0AA
:101D200027F027A096EF0EF098EF0EF09BEF0EF045
:101D3000128E9CEF0EF0129ED8902730136E52EF49
:101D40000DF012000600F2A8A8EF0EF0AAEF0EF0B8
:101D5000B3EF0EF0F2A2AFEF0EF0B1EF0EF0B3EF73
:101D60000EF0A3EC14F0F0A6B8EF0EF0BAEF0EF000
:101D7000C3EF0EF0F0A0BFEF0EF0C1EF0EF0C3EF17
:101D80000EF0A1EC14F0F0A8C8EF0EF0CAEF0EF0C0
:101D9000D3EF0EF0F0A2CFEF0EF0D1EF0EF0D3EFB5
:101DA0000EF09FEC14F0F2A6D8EF0EF0DAEF0EF082
:101DB000F5EF0EF0F2A0DFEF0EF0E1EF0EF0F5EF31
:101DC0000EF081A8E6EF0EF0E8EF0EF0F5EF0EF062
:101DD0007704D8A4EEEF0EF0F0EF0EF0F5EF0EF072
:101DE000000E776E000E8DEC14F0F2A6FAEF0EF0F6
:101DF000FCEF0EF017EF0FF0F2A001EF0FF003EF82
:101E00000FF017EF0FF081B808EF0FF00AEF0FF0A7
:101E100017EF0FF07750D8A410EF0FF012EF0FF07C
:101E200017EF0FF0010E776E010E8DEC14F0F2A695
:101E30001CEF0FF01EEF0FF039EF0FF0F2A023EFC1
:101E40000FF025EF0FF039EF0FF081AA2AEF0FF016
:101E50002CEF0FF039EF0FF07604D8A432EF0FF02B
:101E600034EF0FF039EF0FF0000E766E000E80ECBD
:101E700014F0F2A63EEF0FF040EF0FF05BEF0FF023
:101E8000F2A045EF0FF047EF0FF05BEF0FF081BAD4
:101E90004CEF0FF04EEF0FF05BEF0FF07650D8A441
:101EA00054EF0FF056EF0FF05BEF0FF0010E766E70
:101EB000010E80EC14F0F2A660EF0FF062EF0FF06D
:101EC0007DEF0FF0F2A067EF0FF069EF0FF07DEFFD
:101ED0000FF081AC6EEF0FF070EF0FF07DEF0FF0B1
:101EE0007504D8A476EF0FF078EF0FF07DEF0FF0C8
:101EF000000E756E000E73EC14F0F2A682EF0FF078
:101F000084EF0FF09FEF0FF0F2A089EF0FF08BEF4F
:101F10000FF09FEF0FF081BC90EF0FF092EF0FF0FA
:101F20009FEF0FF07550D8A498EF0FF09AEF0FF0D5
:101F30009FEF0FF0010E756E010E73EC14F0F2A618
:101F4000A4EF0FF0A6EF0FF0C1EF0FF0F2A0ABEF90
:101F50000FF0ADEF0FF0C1EF0FF081AEB2EF0FF069
:101F6000B4EF0FF0C1EF0FF07404D8A4BAEF0FF084
:101F7000BCEF0FF0C1EF0FF0000E746E000E66ECB8
:101F800014F0F2A6C6EF0FF0C8EF0FF0E3EF0FF07A
:101F9000F2A0CDEF0FF0CFEF0FF0E3EF0FF081BE27
:101FA000D4EF0FF0D6EF0FF0E3EF0FF07450D8A49A
:101FB000DCEF0FF0DEEF0FF0E3EF0FF0010E746EC9
:101FC000010E66EC14F07D9211000A6E0A50D8B42E
:101FD000ECEF0FF0EEEF0FF010EF10F005BEF5EFA5
:101FE0000FF0F3EF0FF010EF10F002C006F003C097
:101FF00007F004C008F005C009F0061E071E081E01
:10200000091E062A000E07220822092206C00CF02B
:1020100007C00DF008C00EF009C00FF018EF10F067
:1020200002C00CF003C00DF004C00EF005C00FF0AC
:102030000250031004100510D8A421EF10F023EF74
:1020400010F02DEF10F0000E026E000E036E000E69
:10205000046E000E056EBEEF10F0960E0B6E37EF9D
:1020600010F00B2AD8900F320E320D320C32000EC7
:102070000C14066E000E0D14076E000E0E14086E82
:10208000FE0E0F14096E0650071008100910D8A490
:102090004CEF10F04EEF10F031EF10F05CEF10F05D
:1020A0000B2A010E0C26000E0D220E220F22D890B4
:1020B0000F320E320D320C32000E0C14066E000E72
:1020C0000D14076E000E0E14086EFF0E0F14096E2D
:1020D0000650071008100910D8A471EF10F073EF24
:1020E00010F050EF10F07BEF10F00B06D8900C368C
:1020F0000D360E360F360EBE80EF10F082EF10F068
:102100008AEF10F0020E0B6088EF10F08AEF10F0EB
:1021100075EF10F00BB08FEF10F091EF10F092EF21
:1021200010F00E9ED8900B320BC006F0076A086ABA
:10213000096A06C009F0086A076A066A06500C12A6
:1021400007500D1208500E1209500F120A50D8B441
:10215000ACEF10F0AEEF10F0B6EF10F005BEB5EF3B
:1021600010F0B3EF10F0B6EF10F00F8E0CC002F0CD
:102170000DC003F00EC004F00FC005F01200010EF8
:102180000A6E02500310D8B4C8EF10F0CAEF10F076
:10219000DBEF10F002C0D9FF03C0DAFFDF30E83216
:1021A000E832070B046E070E0464D9EF10F0DBEF82
:1021B00010F03EEF11F0000E0A6E5FEF11F002C05A
:1021C000D9FF03C0DAFFDF30E832E832070B046ED4
:1021D000010E056E042AEFEF10F0D8900536042E9C
:1021E000EDEF10F00550FF0A066E02C0D9FF03C0E4
:1021F000DAFFDF50070B076E0750020DAE0EF32417
:10220000D96E000EF420DA6EDECF08F0DDCF09F0D3
:1022100008C0D9FF09C0DAFF0650DF165FEF11F0E2
:1022200002C0D9FF03C0DAFFDF30E832E832070B23
:10223000046E010E056E042A20EF11F0D8900536C9
:10224000042E1EEF11F002C0D9FF03C0DAFFDF50E9
:10225000070B066E0650020DAE0EF324D96E000E6B
:10226000F420DA6EDECF07F0DDCF08F007C0D9FF2B
:1022700008C0DAFF0550DF125FEF11F002C0D9FF8E
:1022800003C0DAFFDFBE47EF11F04AEF11F0010E95
:102290004BEF11F0000E046E056A0550000AD8B429
:1022A00054EF11F0DBEF10F00450000AD8B4DFEF68
:1022B00010F0010AD8B410EF11F0DBEF10F00A5063
:1022C0001200010E0B6E02500310D8B46AEF11F029
:1022D0006CEF11F07DEF11F002C0D9FF03C0DAFFFF
:1022E000DF30E832E832070B056E070E05647BEF3E
:1022F00011F07DEF11F0E0EF11F0000E0B6EF5EF35
:1023000011F002C0D9FF03C0DAFFDF30E832E83253
:10231000070B056E010E066E052A91EF11F0D8909D
:102320000636052E8FEF11F00650FF0A076E02C029
:10233000D9FF03C0DAFFDF50070B086E0850020D0B
:10234000A40EF324D96E000EF420DA6EDECF09F06D
:10235000DDCF0AF009C0D9FF0AC0DAFF0750DF1647
:10236000F5EF11F002C0D9FF03C0DAFFDF30E83229
:10237000E832070B056E010E066E052AC2EF11F05A
:10238000D8900636052EC0EF11F002C0D9FF03C069
:10239000DAFFDF50070B076E0750020DA40EF3247F
:1023A000D96E000EF420DA6EDECF08F0DDCF09F032
:1023B00008C0D9FF09C0DAFF0650DF12F5EF11F0AF
:1023C0000450056E066A0650000AD8B4EAEF11F010
:1023D000F5EF11F00550000AD8B481EF11F0010AB1
:1023E000D8B4B2EF11F0F5EF11F00B501200043435
:1023F00005340B6E0B50D8A400EF12F002EF12F070
:102400000CEF12F0000E026E000E036E000E046E52
:10241000000E056E79EF12F002C006F003C007F05F
:1024200004C008F005C009F0200E1CEF12F0D8908F
:102430000932083207320632E82E17EF12F0065042
:102440000A6E048EFF0E0216FF0E0316FF0E041610
:10245000000E0516960E0B5E0BBE33EF12F031EF39
:1024600012F049EF12F00B50800A970FD8B03BEFF3
:1024700012F03DEF12F03FEF12F002EF12F0D890A1
:1024800005320432033202320B3E3FEF12F061EFAD
:1024900012F01F0E0B644FEF12F051EF12F059EFD4
:1024A00012F002EF12F0D8900236033604360536E9
:1024B0000B060B50D8A45FEF12F061EF12F053EF50
:1024C00012F00A50D8B467EF12F069EF12F071EF12
:1024D00012F0051E041E031E026C000E03220422CD
:1024E000052202C002F003C003F004C004F005C0DE
:1024F00005F0120020EE08F00250D9260350DA222F
:10250000DFA085EF12F087EF12F0E7EF12F0AB8853
:1025100020EE0CF00250D9260350DA22DECF4BF029
:10252000DDCF4CF020EE0EF00250D9260350DA2217
:10253000DECF49F0DDCF4AF020EE10F00250D92670
:102540000350DA22DECF47F0DDCF48F020EE08F06E
:102550000250D9260350DA22DFA2B1EF12F0B3EF16
:1025600012F0B9EF12F09D8A9D8AF28EF28CC7EFBD
:1025700012F020EE08F00250D9260350DA22DFB222
:10258000C4EF12F0C6EF12F0C7EF12F09D9A20EEE2
:1025900008F00250D9260350DA22DFA4D2EF12F05D
:1025A000D4EF12F0D7EF12F0AB8CE7EF12F020EE81
:1025B00008F00250D9260350DA22DFB4E2EF12F01D
:1025C000E4EF12F0E7EF12F0AB9CE7EF12F012002D
:1025D00020EE06F00250D9260350DA22DFA0F3EFF6
:1025E00012F0F5EF12F041EF13F0AC8A20EE0AF092
:1025F0000250D9260350DA22DECF4DF0DDCF4EF067
:1026000020EE06F00250D9260350DA22DFA20BEFAB
:1026100013F00DEF13F013EF13F09D889D88F28EE9
:10262000F28C21EF13F020EE06F00250D926035071
:10263000DA22DFB21EEF13F020EF13F021EF13F0D8
:102640009D9820EE06F00250D9260350DA22DFA42E
:102650002CEF13F02EEF13F031EF13F0AC8C41EFB1
:1026600013F020EE06F00250D9260350DA22DFB430
:102670003CEF13F03EEF13F041EF13F0AC9C41EF51
:1026800013F01200010E0F6E0C500D10D8B44BEF6A
:1026900013F04DEF13F05EEF13F00CC0D9FF0DC037
:1026A000DAFFDF30E832E832070B0E6E070E0E64F9
:1026B0005CEF13F05EEF13F062EF13F0000E0F6E9D
:1026C00076EF13F00CC002F00DC003F0BFEC10F079
:1026D0000CC002F00DC003F00CC0D9FF0DC0DAFF32
:1026E000000EDFBC010E046E61EC11F00F50120001
:1026F000520EF66E270EF76E000EF86E00EE80F0AA
:1027000010EE61F00900F5CFEEFFE550E150FAE17F
:10271000340EF66E290EF76E000EF86E00EE74F0B1
:1027200010EE09F00900F5CFEEFFE550E150FAE1B7
:1027300000EEE1F00A0EEE6AE806FDE100EE47F079
:102740002D0EEE6AE806FDE17D907D92000123EFFB
:1027500014F03738392F3435362A3132332D2330BF
:102760003D2B323A030B131B232B333B800F810F7E
:10277000810F830F840F890F8A0F8B0F8C0F8D0FA2
:10278000920F930F940F950F960F020A121AA2AA96
:10279000B2BA020A121A222A020A121A011B230BC7
:1027A000138025000001000100000000000000006F
:0327B00000000026
:1027B400000E0A6E000E096E000E0A6E000E096EFF
:1027C400F5EF13F009500324076E0A500420086E35
:1027D40007C0F6FF08C0F7FFF86A0800F55059EC87
:1027E40014F0094A0A2A0550095C06500A58D8A070
:1027F400FEEF13F000EF14F0E4EF13F01200455075
:102804004610D8A408EF14F00AEF14F00CEF14F0FB
:1028140022EF14F0AB9E948E948C45C039F046C0E0
:102824003AF006EC08F045C002F046C003F0E8ECCC
:1028340012F045C002F046C003F07AEC12F0AB8E01
:10284400120040EC14F0010E036E100E046E000E24
:10285400066E070E056EDAEC13F00B0E0001EC6F3A
:10286400260EEB6F5D0EE82EFED7EB2FFCD7EC2F78
:10287400FAD700D025EF14F007EF00F0CF0E456E25
:10288400000E466E01EC14F07C0E0C6E000E0D6E04
:1028940042EC13F07B0E0C6E000E0D6E42EC13F046
:1028A4007A0E0C6E000E0D6E42EC13F01200026EE6
:1028B400ACA25FEF14F061EF14F05AEF14F09D88AE
:1028C40002C0ADFF010E1200016EF2900150D8A4B7
:1028D4006EEF14F070EF14F072EF14F072EF14F066
:1028E4001200016EF2900150D8A47BEF14F07DEF3A
:1028F40014F07FEF14F07FEF14F01200016EF290E9
:102904000150D8A488EF14F08AEF14F08CEF14F07F
:102914008CEF14F01200016EF2900150D8A495EFE0
:1029240014F097EF14F099EF14F099EF14F01200EB
:09293400010101010181030A0205
:0C293E00F0921200F0901200F2921200D1
:020000040020DA
:08000000FFFFFFFFFFFFFFFF00
:020000040030CA
:0E000000FF02091EFF8181FF0FC00FE00F40BD
:00000001FF
